S01900004550532020415050504C49434154494F4E2E737265635F
S1130000B2C00000D1C00000CFC00000CDC00000CD
S1130010CBC00000C9C00000C7C00000C5C00000BC
S1130020C3C00000C1C00000BFC00000BDC00000CC
S1130030BBC00000B9C00000B7C00000B5C00000DC
S1130040B3C000000C94D30BAFC00000ADC00000DF
S1130050ABC00000A9C00000A7C00000A5C00000FC
S1130060A3C00000A1C000009FC000009DC000000C
S11300709BC0000099C0000097C0000095C000001C
S113008093C0000091C000008FC000008DC000002C
S11300908BC0000089C0000087C0000085C000003C
S11300A083C0000081C000007FC000007DC000004C
S11300B07BC0000079C0000077C0000075C000005C
S11300C073C0000071C000006FC000000C94FB0BF3
S11300D06BC0000069C0000067C0000065C000007C
S11300E063C0000007634236B79BD8A71A39685625
S11300F018AEBAAB558C1D3CB7CC5763BD6DEDFD46
S1130100753EF6177231BF000000803F0800000002
S1130110BE922449123EABAAAA2ABECDCCCC4C3EF8
S113012000000080BEABAAAAAA3E00000000BF00E7
S11301300000803F0000000000084178D3BB4387E3
S1130140D1133D190E3CC3BD4282AD2B3E68EC82F7
S113015076BED98FE1A93E4C80EFFFBE01C4FF7F7C
S11301603F000000000011241FBECFEFD1E2DEBF2C
S1130170CDBF00E00CBF13E0A0E0B2E0EAE9F1E299
S113018000E00BBF02C007900D92A030B107D9F771
S113019025E0A0E0B3E001C01D92A739B207E1F762
S11301A00E94220C0C94CB102BCF65E875E003D091
S11301B085E895E00895CF92DF92EF92FF920F9336
S11301C01F93CF93DF9300D01F92CDB7DEB76C019E
S11301D07B01E0919505F0919605309729F061E94E
S11301E075E019958C0102C00FEF1FEFF6014081F5
S11301F05181628173818091910590919205A091C2
S11302009305B0919405840F951FA61FB71F101670
S113021011064CF4A801012E000C660B770B840F19
S1130220951FA61FB71F89839A83AB83BC83B7012D
S1130230CE010196B1D0F701138702870F900F907A
S11302400F900F90DF91CF911F910F91FF90EF903E
S1130250DF90CF900895CF92DF92EF92FF920F93A9
S11302601F93CF93DF9300D01F92CDB7DEB78C01DD
S11302706FD169837A838B839C83F801828593850C
S113028097FF0EC0E0919505F0919605309741F0E7
S113029061E975E0CE0101961995F801938782878B
S11302A0F801828593851816190694F4092E000C1A
S11302B0AA0BBB0B49815A816B817C816A017B014A
S11302C0C81AD90AEA0AFB0AC982DA82EB82FC82DA
S11302D089819A81AB81BC814091910550919205AD
S11302E06091930570919405841B950BA60BB70B35
S11302F089839A83AB83BC83B801CE0101965BDF0B
S113030069817A818B819C810F900F900F900F905F
S1130310DF91CF911F910F91FF90EF90DF90CF90DD
S113032008950FB6F89460938105709382058093C5
S11303308305909384050FBE0895FC010FB6F894CD
S11303406091810570918205809183059091840567
S11303500FBE309721F06083718382839383089565
S11303608F938FB78F93F894809181058F5F8093DB
S11303708105809182058F4F80938205809183054A
S11303808F4F80938305809184058F4F80938405DC
S11303908F918FBF8F910895CF92DF92EF92FF924A
S11303A00F931F93CF93DF93CDB7DEB728970FB684
S11303B0F894DEBF0FBECDBF8B01FC01608171815B
S11303C08281938120E831E541E050E00E946E1083
S11303D069017A012CE330E040E050E00E94901083
S11303E029833A834B835C8389819A81AB81BC8165
S11303F0F80160836CE370E00E945B10DC01CB01C8
S1130400F801A1838283C601069667E070E00E942A
S1130410471084832DEA3EE840E050E0C701B6016E
S11304200E94901029833A836D837E838F839887FB
S113043089819A8124E6289F6001299FD00C112488
S11304406D817E818F81988525EB35E040E050E019
S11304500E94901029833A836D837E83E980FA8019
S1130460EE0CFF1CEE0CFF1CEC0CFD1C8D819E8120
S1130470F5E6EF16F10410F0019604C024E6E21646
S1130480F10419F021E030E002C020E030E0A901DD
S113049044595E4F4817590768F46DE671E0821BB2
S11304A0930B0E945B10DC01CB01E80EF91ECD0119
S11304B020E030E044E6E40EF11CF801F782E68225
S11304C091878087255C3F4F8217930748F46FE13B
S11304D070E00E945B10DC01CB01F801858322C02F
S11304E069E970E0821B930B0E945B10DC01CB0175
S11304F0F82EFF0CFF0CF80E6DE370E0CD010E94A6
S11305005B10DC01CB01E82EEE0C6FE170E0CD0155
S11305100E945B10DC01CB0122E0280FF20EFE0CDE
S1130520F801F582A383F8011386128683818F5F15
S1130530838328960FB6F894DEBF0FBECDBFDF913C
S1130540CF911F910F91FF90EF90DF90CF9008957E
S11305508F929F92AF92BF92CF92DF92EF92FF92CF
S11305600F931F93CF93DF93EC01EE81FF818F01F3
S113057004561109B9F0CF01855691096C0197FF12
S113058003C023E0C20ED11CD594C794D594C7945C
S11305906CE97FEF0E945B10C60ED71E8FEFC81A5E
S11305A0D80A02C0C12CD12C2DE631E0D8010E941A
S11305B0AC100D2C000CEE08FF08C60ED71EE81E6A
S11305C0F91E8B81082E000C990B8C010150110926
S11305D02D8122302CF4222371F1015E1F4F2BC098
S11305E0CF018459984F6CD0282F30E0255C3F4FC1
S11305F0200F311F8D81082E000C990B0297853036
S1130600910514F027563F4F65E070E00E945B109F
S1130610AC0197FF02C04F5F5F4F559547959DE32F
S1130620949F8001959F100D1124020F131F80FFCA
S113063002C0015E1F4FC801110FAA0BBB0B9C0126
S1130640AD012C0D3D1D4E1D5F1D60E871E581E07F
S113065090E00E9438104B015C01AA810A2E000C24
S1130660BB0B20E13EE00E94AC106B017C01A98130
S11306700A2E000CBB0B2CE330E00E94AC10C60E1B
S1130680D71EE81EF91E6881862F660F990BAA0BE8
S1130690BB0B8C0D9D1DAE1DBF1DBC01CD01680D96
S11306A0791D8A1D9B1DDF91CF911F910F91FF90A2
S11306B0EF90DF90CF90BF90AF909F908F90089570
S11306C09C0123703327232B59F464E670E00E94C5
S11306D05B10892B39F46370772781E0672B19F05D
S11306E080E0089581E0089510BA10920701ECE7C4
S11306F0F0E0808180648083808180628083EAE787
S1130700F0E0808180688083808187608083EBE76C
S1130710F0E0808180648083089590E490937B006E
S11307208770806480937C0080917A0080648093D9
S11307307A0080917A0084FFFCCF80917A008061F6
S113074080937A008091780090917900089598E4DC
S113075090937B008770806480937C0080917A0002
S1130760806480937A0080917A0084FFFCCF80912A
S11307707A00806180937A0080917800909179006A
S11307800895CF93DF9380E0C8DFC1E5D4E0880FFC
S1130790991FBC0180E090E00E943E0D20EB32E7FF
S11307A04CE950E40E94F40D20E030EC4FE754E4AF
S11307B00E94A50C688379838A839B8381E0ADDFE3
S11307C0BC0180E090E00E943E0D23E333E343E06C
S11307D051E40E94F40D20EB32E74CE950E40E940E
S11307E0F40D20E030EC4FE754E40E94A50C0E9485
S11307F0120D68A382E091DFBC0180E090E00E94CA
S11308003E0D20EB32E74CE950E40E94F40D20E069
S113081030EC4FE754E40E94A50C27ED33EA40E79F
S11308205FE30E94A50C6C837D838E839F8381E0AC
S11308308EDF880F991FBC0180E090E00E943E0D7E
S113084020EB32E74CE950E40E94F40D20E030EC58
S11308504FE754E40E94A50C688779878A879B87B1
S113086082E075DF24E6AC01249FC001259F900D32
S11308701124BC0180E090E00E943E0D2FE832EC90
S113088045E150E40E94F40D20EB32E74CE950E4DA
S11308900E94F40D20E030EC4FE754E40E94A50CD4
S11308A00E94120D69A383E052DFBC0180E090E056
S11308B00E943E0D20EB32E74CE950E40E94F40D17
S11308C020E030EC4FE754E40E94A50C27ED33EA16
S11308D040E75FE30E94A50C6C877D878E879F8726
S11308E084E035DF880F991FBC0180E090E00E940E
S11308F03E0D20EB32E74CE950E40E94F40D20E079
S113090030EC4FE754E40E94A50C688B798B8A8BFA
S11309109B8B85E01CDFBC0180E090E00E943E0DD3
S113092020EB32E74CE950E40E94F40D20E030EC77
S11309304FE754E40E94A50C20E030E040EA5FE376
S11309409BD72DEC3CEC4CEC5EE3FFD76C8B7D8BA2
S11309508E8B9F8B86E0FBDE880F991FBC0180E0A5
S113096090E00E943E0D20EB32E74CE950E40E94F7
S1130970F40D20E030EC4FE754E4E7D7688F798F2B
S11309808A8F9B8F87E0E3DEBC0180E090E00E94C9
S11309903E0D20EB32E74CE950E40E94F40D20E0D8
S11309A030EC4FE754E4D1D727ED33EA40E75FE377
S11309B0CCD76C8F7D8F8E8F9F8FDF91CF9172C339
S11309C08FEF81B987B983BBEAE0F1E0808180626F
S11309D08083E0E2F1E080818B608083E1E2F1E0FA
S11309E080818961808385E090E0909329018093E0
S11309F028010895E1E8F0E080818D608083EFE6CE
S1130A00F0E080818260808380E89EE39093890097
S1130A10809388000895CF92DF92EF92FF928091A5
S1130A20690490916A04A0916B04B0916C04809362
S1130A30310490933204A0933304B093340480912E
S1130A406D0490916E04A0916F04B0917004809332
S1130A50770590937805A0937905B0937A05609112
S1130A6031047091320480913304909134040E94D3
S1130A70A70E6B017C0160917705709178058091D8
S1130A80790590917A050E94A70E9B01AC01C701DC
S1130A90B6010E94F40D60930A0470930B048093D2
S1130AA00C0490930D046091310470913204809190
S1130AB033049091340420E030E040E85FE341D710
S1130AC087FF1EC010920E0410920F04109210049F
S1130AD01092110410920604109207041092080454
S1130AE0109209041092190410921A0410921B0413
S1130AF010921C0480910A018F7D80930A017EC0AC
S1130B0080910A01806280930A0160910A047091C5
S1130B100B0480910C0490910D0420910E043091EB
S1130B200F0440911004509111040E94F00D87FDB0
S1130B3021C08091310490913204A0913304B0918A
S1130B4034048093190490931A04A0931B04B09363
S1130B501C048091310490913204A0913304B0912B
S1130B6034048093060490930704A0930804B0937C
S1130B70090424C08091060490910704A0910804FC
S1130B80B09109048093190490931A04A0931B0450
S1130B90B0931C0460910A0470910B0480910C04BE
S1130BA090910D04209147043091480440914904E8
S1130BB050914A040E94F00D181684F480910A049E
S1130BC090910B04A0910C04B0910D0480930E0439
S1130BD090930F04A0931004B093110480910A041D
S1130BE090910B04A0910C04B0910D0480934704E0
S1130BF090934804A0934904B0934A046091190463
S1130C0070911A0480911B0490911C0420E030E040
S1130C1040E854E4E9D720E030E040EA50E495D6D7
S1130C2001D770932D0160932C0160911904709188
S1130C301A0480911B0490911C0420E030E040E8E9
S1130C4054E4D2D720E030E040EA50E47ED660930A
S1130C507304709374048093750490937604FF90E6
S1130C60EF90DF90CF900895CF9320E030E040ECF8
S1130C7050E46091610470916204809163049091E6
S1130C8064045FD6C091710487FF21C0149816983C
S1130C90A29820E030E040E85FE36091690470913D
S1130CA06A0480916B0490916C044BD687FF03C057
S1130CB04098429802C0409A429ACC2321F08091F5
S1130CC07204811102C0449A2CC044982AC0C333D0
S1130CD020F4809172048333C8F014981698A29873
S1130CE0449820E030E040E85FE36091690470914B
S1130CF06A0480916B0490916C0423D687FF03C02F
S1130D00409842980EC0409A429A0BC0CC2311F0EE
S1130D10811102C0449A01C04498169A409A429A9A
S1130D20A29ACF910895F999FECF92BD81BD60BD7D
S1130D30FA9AF99A0895F999FECF92BD81BDF89A6D
S1130D4080B50895CF93DF9380913904882309F403
S1130D5041C080913B0420D5E82FF0E0E050FE4FE5
S1130D60C0818091350418D58C27E82FF0E0E0503D
S1130D70FE4FC081809136040FD58C27E82FF0E018
S1130D80E050FE4FC0818091370406D58C27E82FB0
S1130D90F0E0E050FE4FC08180913904FDD48C27EF
S1130DA0E82FF0E0E050FE4FC081D0E0809139049C
S1130DB0D81770F4ED2FF0E0E958FB4F8081ECD4A4
S1130DC08C27E82FF0E0E050FE4FC081DF5FEECFCC
S1130DD08C2F08C080913B04DFD4E82FF0E0E05072
S1130DE0FE4F8081DF91CF91D7C40F931F93CF9390
S1130DF0DF93EC018C01060F111DC017D10719F008
S1130E00C4D48993FACFDF91CF911F910F910895A4
S1130E10BCD4809335048032C1F4B7D480933604B3
S1130E20B4D480933704B1D480933804AED480937F
S1130E3039046091380480E093E0D7DFA6D480932E
S1130E403A0481E080931D04089510921D040895CE
S1130E50E0913504F0E0E050FE4FE08180913604EB
S1130E60E827F0E0E050FE4FE08180913704E82766
S1130E70F0E020913804E050FE4FE081E227F0E0FA
S1130E80E050FE4FE08180913904E827F0E0E05023
S1130E90FE4FE081A0E0B3E090E0921741F08D9125
S1130EA0E827F0E0E050FE4FE0819F5FF6CF8091AD
S1130EB03A04E827F0E0E050FE4F808108958091E5
S1130EC03504803209F064C0809136048330B1F176
S1130ED028F4813051F0823011F10895843009F4FE
S1130EE041C08E3B09F44DC0089580913704813090
S1130EF051F028F0823059F0833069F0089587E783
S1130F0094E016D13DC087E794E092D139C087E7D9
S1130F1094E040D135C087E794E0BBD131C08091E3
S1130F203704882319F0813029F008958091000353
S1130F3044D226C087E794E02CD222C080913704A3
S1130F40813041F018F0823049F0089580E093E058
S1130F503CD216C087E794E063D212C080E093E0ED
S1130F607DD20EC080913704882319F0813029F096
S1130F70089587E794E09ED203C087E794E089D27E
S1130F80E1CE80913704811103C081E080933C0459
S1130F9008953EDF80911D04882389F059DF811173
S1130FA004C08CEA80933B048ACF84E580933B049D
S1130FB0F3D3E82FF0E0E050FE4F8081EDC30895B5
S1130FC04F925F926F927F928F929F92AF92BF9255
S1130FD0CF92DF92EF92FF920F931F93CF93DF9301
S1130FE04B015C01EA01722E18D56B017C014AE0C9
S1130FF0BE01C6010E940510FC0101900020E9F722
S113100031978F01081B190B772009F43AC0FE01B0
S1131010E00FF11F8EE28083672D70E080E090E0A6
S11310202DD59B01AC0160E070E080E291E43FD6F5
S11310302B013C01B601DD0C880B990B21D59B01DA
S1131040AC01C501B40118D40F5F1F4FC00FD11FED
S1131050A3019201C9D5E1D4DC01CB014AE0BE0170
S1131060DF91CF911F910F91FF90EF90DF90CF9080
S1131070BF90AF909F908F907F906F905F904F90B4
S1131080C4C7DF91CF911F910F91FF90EF90DF9034
S1131090CF90BF90AF909F908F907F906F905F9014
S11310A04F900895CF93DF93C1E5D4E068817981AF
S11310B08A819B8123E04BE755E082DF6C817D814F
S11310C08E819F8123E04BE254E07ADF6885798545
S11310D08A859B8523E04BE454E072DF6C857D8533
S11310E08E859F8523E04FE154E06ADF6889798922
S11310F08A899B8923E041E454E062DF6C897D891D
S11311008E899F8923E042E154E05ADF688D798D0E
S11311108A8D9B8D23E045E254E052DF6C8D7D8DFA
S11311208E8D9F8D23E040E054E0DF91CF9148CF36
S1131130CF93DF93EC01E5E2F4E080818883818141
S1131140898382818A8383818B8384818C83E0E099
S1131150F4E080818D8381818E8382818F8383817A
S113116088878481898720E030E040E85AE36091F1
S1131170730470917404809175049091760434D54D
S113118020E030E048EC52E42FD54CD46A87DF915C
S1131190CF910895FC01ABE7B5E08C918083119663
S11311A08C911197818312968C9112978283139656
S11311B08C911397838314968C918483ABE4B4E06D
S11311C08C91858311968C911197868312968C91BC
S11311D01297878313968C911397808714968C911A
S11311E08187ABE2B4E08C91828711968C91119740
S11311F0838712968C911297848713968C911397F8
S1131200858714968C918687AFE1B4E08C918787AB
S113121011968C911197808B12968C911297818BD9
S113122013968C911397828B14968C91838B0895CB
S1131230FC01A1E5B4E090968C91909780839196FF
S11312408C918183A1E4B4E08C91828311968C917A
S11312501197838312968C911297848313968C91A1
S11312601397858314968C918683A2E1B4E08C91C4
S1131270878311968C911197808712968C9112977F
S1131280818713968C911397828714968C91838708
S11312900895CF93DF93EC01EBE7F5E08081888339
S11312A08181898382818A8383818B8384818C83F6
S11312B0EBE4F4E080818D8381818E8382818F834E
S11312C08381888784818987EBE2F4E080818A873F
S11312D081818B8782818C8783818D8784818E87AE
S11312E0EFE1F4E080818F878181888B8281898B13
S11312F083818A8B84818B8BE5E2F4E080818C8B03
S113130081818D8B82818E8B83818F8B8481888F69
S1131310E0E0F4E08081898F81818A8F82818B8FE4
S113132083818C8F84818D8FE1E4F4E080818E8FC2
S113133081818F8F828188A3838189A384818AA3F9
S1131340E2E1F4E080818BA381818CA382818DA36F
S113135083818EA384818FA3E1E5F4E080A188A733
S113136081A189A720E030E040E85AE3609173044A
S113137070917404809175049091760435D420E0C2
S113138030E048EC52E430D44DD36AA7DF91CF91DA
S11313900895FC0182B18071808382B1807481835D
S11313A088B18170828388B18470838388B18071AD
S11313B0848384B3847085830895813011F4149AEE
S11313C00895811101C014980895CF93DF93CDB788
S11313D0DEB72C970FB6F894DEBF0FBECDBFFC016D
S11313E08081898381818E5F8A8382818B838381DB
S11313F08C8384818D8385818E83868190E0988718
S11314008F83CE0101960E942B010E9491012C969C
S11314100FB6F894DEBF0FBECDBFDF91CF91089514
S1131420CF93DF93EC0181E890E085DC888382E848
S113143090E081DC898383E890E07DDC8A8384E822
S113144090E079DC8B8386E890E075DC8C8387E818
S113145090E071DC8D83DF91CF910895CF93DF937A
S1131460EC01688180E990E05EDC698181E990E0CB
S11314705ADC6A8182E990E056DC6B8183E990E072
S113148052DC6C818881680F84E990E0DF91CF9110
S11314904ACCFC0185E4808380E5818393E59283D3
S11314A09FE59383848389E485838EE4868387E43C
S11314B087830895CF93DF93EC01EBE7F5E0808118
S11314C088838181898382818A8383818B838481D8
S11314D08C83EBE4F4E080818D8381818E8382812F
S11314E08F838381888784818987EBE2F4E080811C
S11314F08A8781818B8782818C8783818D87848190
S11315008E87EFE1F4E080818F878181888B8281EF
S1131510898B83818A8B84818B8BE5E2F4E08081E3
S11315208C8B81818D8B82818E8B83818F8B848147
S1131530888FE0E0F4E08081898F81818A8F8281C5
S11315408B8F83818C8F84818D8FE1E4F4E08081A3
S11315508E8F81818F8F828188A3838189A38481E7
S11315608AA3E2E1F4E080818BA381818CA3828150
S11315708DA383818EA384818FA3E1E5F4E080A110
S113158088A781A189A720E030E040E85AE3609170
S1131590730470917404809175049091760424D33B
S11315A020E030E048EC52E41FD33CD26AA782B179
S11315B080718BA782B180748CA788B181708DA74C
S11315C088B184708EA788B180718FA784B384702A
S11315D088AB81E890E0AFDB89AB82E890E0ABDBDD
S11315E08AAB83E890E0A7DB8BAB84E890E0A3DBD5
S11315F08CAB86E890E09FDB8DAB87E890E09BDBCB
S11316008EAB80E990E097DB8FAB81E990E093DBD0
S113161088AF82E990E08FDB89AF83E990E08BDBD0
S11316208AAF84E990E087DB8BAF85E48CAF80E5FB
S11316308DAF93E59EAF9FE59FAFFE01E05CFF4F4A
S11316408083319689E4808331968EE48083CD5BF8
S1131650DF4F87E48883DF91CF91089580913C0424
S1131660882339F06DEB8DEE9BE05DDBF8940D94EF
S113167000F008950F931F93CF93DF9300D01F9230
S1131680CDB7DEB780E090E00E949D0169837A8344
S11316908B839C83CE0101960E94D5008C01FC01B2
S11316A0608181E890E03FDBF801618182E890E0AD
S11316B03ADBF801628183E890E035DBF80163816D
S11316C084E890E030DBF801648185E890E02BDB6E
S11316D0F801658186E890E026DBF8016681605DAB
S11316E087E890E020DB0F900F900F900F90DF9130
S11316F0CF911F910F910895CF9386E890E01BDB63
S1131700C82F83E990E017DB2C2F30E0281B310928
S113171069F584E890E00FDBC82F82E990E00BDBE9
S11317202C2F30E0281B310909F583E890E003DB16
S1131730C82F81E990E0FFDA2C2F30E0281B310913
S1131740A9F482E890E0F7DAC82F80E990E0F3DAB0
S1131750C81302C0149A0AC083E890E0ECDAC82FD8
S113176084E990E0E8DAC81301C01498CF91089591
S11317708093D4001092D50088E98093D10086E04C
S11317808093D20010923C0408958091D00087FF8A
S1131790FCCF8091D60008958093D6009091D0001C
S11317A095FFFCCF08951F920F920FB60F9211244C
S11317B00BB60F922F933F934F935F936F937F9347
S11317C08F939F93AF93BF93EF93FF930E94B001C6
S11317D0FF91EF91BF91AF919F918F917F916F9105
S11317E05F914F913F912F910F900BBE0F900FBEC1
S11317F00F901F9018951F920F920FB60F921124FD
S11318000BB60F922F933F934F935F936F937F93F6
S11318108F939F93AF93BF93EF93FF93BADBFF91A3
S1131820EF91BF91AF919F918F917F916F915F9154
S11318304F913F912F910F900BBE0F900FBE0F90C1
S11318401F9018959EE088E10FB6F894A8958093B0
S113185060000FBE909360000E947403B1D887E6C5
S113186087DFC8D87894A8950E94C103D4D8FCD93E
S113187043DF00DFF3DEF7CF5058BB27AA270ED093
S113188075C166D130F06BD120F031F49F3F11F473
S11318901EF45BC10EF4E095E7FB51C1E92F77D14B
S11318A080F3BA17620773078407950718F071F479
S11318B09EF58FC10EF4E0950B2EBA2FA02D0B01CF
S11318C0B90190010C01CA01A0011124FF27591B81
S11318D099F0593F50F4503E68F11A16F040A22F87
S11318E0232F342F4427585FF3CF469537952795F8
S11318F0A795F0405395C9F77EF41F16BA0B620BF7
S1131900730B840BBAF09150A1F0FF0FBB1F661F3D
S1131910771F881FC2F70EC0BA0F621F731F841F80
S113192048F4879577956795B795F7959E3F08F0A6
S1131930B3CF9395880F08F09927EE0F9795879565
S11319400895D9D008F481E008950CD00FC107D1CF
S113195040F0FED030F021F45F3F19F0F0C0511197
S113196039C1F3C014D198F39923C9F35523B1F3C2
S1131970951B550BBB27AA2762177307840738F0FA
S11319809F5F5F4F220F331F441FAA1FA9F333D059
S11319900E2E3AF0E0E830D091505040E695001C0D
S11319A0CAF729D0FE2F27D0660F771F881FBB1FC9
S11319B0261737074807AB07B0E809F0BB0B802DA3
S11319C0BF01FF2793585F4F2AF09E3F510568F0EF
S11319D0B6C000C15F3FECF3983EDCF38695779583
S11319E06795B795F7959F5FC9F7880F911D9695F1
S11319F0879597F90895E1E0660F771F881FBB1F4D
S1131A00621773078407BA0720F0621B730B840BF9
S1131A10BA0BEE1F88F7E095089504D06894B111CD
S1131A20D9C00895BCD088F09F5790F0B92F99275A
S1131A30B751A0F0D1F0660F771F881F991F1AF0D5
S1131A40BA95C9F712C0B13081F0C3D0B1E008959E
S1131A50C0C0672F782F8827B85F39F0B93FCCF31F
S1131A60869577956795B395D9F73EF490958095CB
S1131A70709561957F4F8F4F9F4F0895E89409C0EB
S1131A8097FB3EF490958095709561957F4F8F4FAD
S1131A909F4F9923A9F0F92F96E9BB279395F695C3
S1131AA0879577956795B795F111F8CFFAF4BB0F41
S1131AB011F460FF1BC06F5F7F4F8F4F9F4F16C0A5
S1131AC0882311F096E911C0772321F09EE8872F2F
S1131AD0762F05C0662371F096E8862F70E060E0EB
S1131AE02AF09A95660F771F881FDAF7880F969564
S1131AF0879597F90895990F0008550FAA0BE0E808
S1131B00FEEF16161706E807F907C0F012161306BB
S1131B10E407F50798F0621B730B840B950B39F4FB
S1131B200A2661F0232B242B252B21F408950A2661
S1131B3009F4A140A6958FEF811D811D089597F9A1
S1131B409F6780E870E060E008959FEF80EC08955F
S1131B5000240A9416161706180609060895002488
S1131B600A9412161306140605060895092E039402
S1131B70000C11F4882352F0BB0F40F4BF2B11F476
S1131B8060FF04C06F5F7F4F8F4F9F4F089557FDD5
S1131B909058440F551F59F05F3F71F04795880FD7
S1131BA097FB991F61F09F3F79F08795089512166E
S1131BB013061406551FF2CF4695F1DF08C016161A
S1131BC017061806991FF1CF8695710561050894CB
S1131BD00895E894BB2766277727CB0197F90895E2
S1131BE08ADF08F48FEF08950BD0C0CFB1DF28F05F
S1131BF0B6DF18F0952309F0A2CFA7CF1124EACFBE
S1131C00C6DFA0F3959FD1F3950F50E0551F629F57
S1131C10F001729FBB27F00DB11D639FAA27F00D41
S1131C20B11DAA1F649F6627B00DA11D661F829F68
S1131C302227B00DA11D621F739FB00DA11D621F4D
S1131C40839FA00D611D221F749F3327A00D611D6A
S1131C50231F849F600D211D822F762F6A2F11244C
S1131C609F5750408AF0E1F088234AF0EE0FFF1F9F
S1131C70BB1F661F771F881F91505040A9F79E3FD6
S1131C80510570F05CCFA6CF5F3FECF3983EDCF3D8
S1131C90869577956795B795F795E7959F5FC1F713
S1131CA0FE2B880F911D9695879597F90895FA0153
S1131CB0EE0FFF1F30962105310599F1611571056D
S1131CC061F48038BFE39B0749F16894903881053B
S1131CD061F08038BFEF9B0741F0992342F5FF3F45
S1131CE0E1053105210511F1E8940894E795D9013E
S1131CF0AA2329F4AB2FBE2FF85FD0F310C0FF5FE7
S1131D0070F4A695E0F7F73950F019F0FF3A38F47B
S1131D109F779F930CD00F9007FC905808953EF046
S1131D2014CF60E070E080E89FE308954FE79F7769
S1131D305F934F933F932F93F5D02F913F914F9102
S1131D405F9152DF47C011F40EF4FFCE6FC027DF5E
S1131D50D0F39923D9F3CEF39F57550B87FF74D053
S1131D600024A0E640EA900180585695979528F4FF
S1131D70805C660F771F881F20F0261737074807F7
S1131D8030F4621B730B840B202931294A2BA6954E
S1131D9017940794202531254A2758F7660F771F93
S1131DA0881F20F026173707480730F4620B730B9F
S1131DB0840B200D311D411DA09581F7B901842F9D
S1131DC09158880F96958795089519F40EF0B7CE1B
S1131DD000CFBBCEE4DEC8F39638C0F707F80F9205
S1131DE0E8942BE33AEA48EB5FE70CDF0F920F929B
S1131DF00F924DB75EB70F92D5D0E4EEF0E02BD042
S1131E004F915F91EF91FF91E595EE1FFF1F49F010
S1131E10FE57E0684427EE0F441FFA95E1F7419519
S1131E20550B47D00F9007FE3BC008959F3F31F0FC
S1131E30915020F4879577956795B795880F911DF4
S1131E409695879597F9089591505040660F771F9E
S1131E50881FD2F70895DF93CF931F930F93FF92B8
S1131E60EF92DF927B018C01689405C0DA2EEF01BA
S1131E70C7DEFE01E894A5912591359145915591D0
S1131E80AEF3EF010BDDFE019701A801DA9479F7B7
S1131E90DF90EF90FF900F911F91CF91DF91089504
S1131EA09B01AC0160E070E080E89FE34ECD47CE3B
S1131EB0BDCF75DEE8F39923D9F3940F511DBBF31D
S1131EC09150504094F059F0882332F0660F771FF8
S1131ED0881F91505040C1F79E3F510544F7880F29
S1131EE0911D9695879597F908955F3FACF0983EBC
S1131EF09CF0BB27869577956795B79508F4B160F4
S1131F009395C1F7BB0F58F711F460FFE8CF6F5FEB
S1131F107F4F8F4F9F4FE3CF5DCE0EF087CF15CE0F
S1131F2068940DCE3CDEC8F39923D1F3C6F3DF9356
S1131F30CF931F930F93FF92C92FDD2788232AF095
S1131F402197660F771F881FDAF720E030E040E81A
S1131F505FEB9FE3883920F0803E30F021968F7745
S1131F608CDCECE0F1E003C088DCE9E3F1E073DF52
S1131F708B01BE01EC01FB2E6F5771097595771F1C
S1131F80880B990B7DDD28E132E741E35FE338DE1E
S1131F90AF2D9801AE01FF900F911F91CF91DF916A
S1131FA07DDCE4CDFA01DC01AA0FBB1F9B01AC016F
S1131FB0BF5728F422273327442750781FC0B7512E
S1131FC088F4AB2F0024469537952795011CA395DB
S1131FD0D2F3002069F0220F331F441FB395DAF3C4
S1131FE00DD04ACC61307105A0E88A07B94630F4B7
S1131FF09B01AC016627772788279078309621F0DB
S113200020833183428353830895BB274A3031F4BC
S1132010992322F4BDE2909581959F4F01C0BB277F
S1132020FB015527AA27880F991FAA1FA41710F090
S1132030A41B83955051B9F7A05DAA3308F0A95D9C
S1132040A193009779F7B111B1931192CB0100C01C
S1132050DC01FC01672F71917723E1F7329704C00B
S11320607C916D9370836291AE17BF07C8F3089596
S1132070DB018F939F9376D0BF91AF91A29F800D88
S1132080911DA39F900DB29F900D11240895AA1B3A
S1132090BB1B51E107C0AA1FBB1FA617B70710F04F
S11320A0A61BB70B881F991F5A95A9F78095909581
S11320B0BC01CD01089597FB072E16F4009406D0B9
S11320C077FD08D0E4DF07FC05D03EF490958195B8
S11320D09F4F0895709561957F4F0895A1E21A2E40
S11320E0AA1BBB1BFD010DC0AA1FBB1FEE1FFF1FB8
S11320F0A217B307E407F50720F0A21BB30BE40B08
S1132100F50B661F771F881F991F1A9469F760954E
S11321107095809590959B01AC01BD01CF01089508
S1132120052E97FB16F400940FD057FD05D0D6DF8B
S113213007FC02D046F408C050954095309521958F
S11321403F4F4F4F5F4F08959095809570956195DF
S11321507F4F8F4F9F4F08950FD0B7FF0895821B75
S1132160930B089509D0A59F900DB49F900DA49F43
S1132170800D911D11240895A29FB001B39FC00149
S1132180A39F700D811D1124911DB29F700D811D9F
S10D21901124911D0895F894FFCF67
S113219A00070E091C1B1215383F363124232A2D39
S11321AA70777E796C6B6265484F464154535A5D29
S11321BAE0E7EEE9FCFBF2F5D8DFD6D1C4C3CACD19
S11321CA90979E998C8B8285A8AFA6A1B4B3BABD09
S11321DAC7C0C9CEDBDCD5D2FFF8F1F6E3E4EDEAF9
S11321EAB7B0B9BEABACA5A28F88818693949D9AE9
S11321FA2720292E3B3C35321F18111603040D0AD9
S113220A5750595E4B4C45426F68616673747D7AC8
S113221A898E878095929B9CB1B6BFB8ADAAA3A4B8
S113222AF9FEF7F0E5E2EBECC1C6CFC8DDDAD3D4A8
S113223A696E676075727B7C51565F584D4A434498
S113224A191E171005020B0C21262F283D3A333488
S113225A4E49404752555C5B7671787F6A6D646378
S113226A3E39303722252C2B0601080F1A1D141368
S113227AAEA9A0A7B2B5BCBB9691989F8A8D848358
S113228ADED9D0D7C2C5CCCBE6E1E8EFFAFDF4F348
S9030000FC
