:1000000071C000008EC000008CC000008AC00000DB
:1000100088C0000086C0000084C0000082C00000CC
:1000200080C000007EC000007CC000007AC00000DC
:1000300078C0000076C0000074C0000072C00000EC
:1000400070C000006EC000006CC000006AC00000FC
:1000500068C0000066C0000064C0000062C000000C
:1000600060C000005EC000005CC000005AC000001C
:1000700058C0000056C0000054C0000052C000002C
:1000800050C000004EC000004CC000004AC000003C
:1000900048C0000046C0000044C0000042C000004C
:1000A00040C000003EC000003CC000003AC000005C
:1000B00038C0000036C0000034C0000032C000006C
:1000C00030C000002EC000002CC000002AC000007C
:1000D00028C0000026C0000024C0000022C000008C
:1000E00020C0000011241FBECFEFD1E2DEBFCDBF84
:1000F00000E00CBF13E0A0E0B2E0EEE8F5E000E0C5
:100100000BBF02C007900D92A030B107D9F729E0CC
:10011000A0E0B3E001C01D92A837B207E1F725D2F5
:1001200034C26ECFCF92DF92EF92FF92CF93DB017A
:100130004D915C911197442760E070E007B600FC98
:10014000FDCFF999FECF83E0FA0160935B008093C5
:100150005700E8959D0133956A017B01C1E007B620
:1001600000FCFDCFF999FECF13968C91139790E088
:10017000982F88271296EC9112978E2B0C01F6017E
:10018000E0925B00C0935700E8951124129682E03C
:10019000C80ED11CE11CF11CA217B30701F707B66A
:1001A00000FCFDCFF999FECF85E0FA0160935B007A
:1001B00080935700E89507B600FCFDCFF999FECF74
:1001C00081E180935700E895CF91FF90EF90DF9009
:1001D000CF9008958091000390910103982789277B
:1001E0009827909383078093820710923706109286
:1001F0003606E4E8F7E01082118281E080937D0703
:1002000075C0809136069091370620918207309113
:1002100083078217930751F00196909337068093D6
:100220003606109284078093850760C022E02093F1
:100230007D0721E020937F0748D18093840756D023
:10024000109237061092360608953DD06EEB8DEE73
:100250009BE02AD08CEA8093840748D00C9400005D
:10026000089580917B078032B1F480917C078E3BAA
:1002700091F480917D07813029F018F0833051F09E
:100280000895A8CF60E073E08091390690913A0616
:1002900049DFB7CFDACF08958DEE9BE00DD08E3BCE
:1002A00011F40C9400000895F999FECF92BD81BD20
:1002B00060BDFA9AF99A0895F999FECF92BD81BD71
:1002C000F89A80B50895CF93DF93C0E0D0E0CE01D7
:1002D000F3DF8F3F19F06FEFCE01E6DF2196C115F6
:1002E00080E1D807A1F7DF91CF9108950F931F9375
:1002F000CF9380917F07882309F452C080918107B2
:100300002DD1E82FF0E0E050FE4FC08180917B07B7
:1003100025D18C27E82FF0E0E050FE4FC08180917E
:100320007C071CD18C27E82FF0E0E050FE4FC08105
:1003300080917D0713D18C27E82FF0E0E050FE4F2D
:10034000C08180917F070AD18C27E82FF0E0E05030
:10035000FE4FC08180917F078F3F19F480E091E0CC
:1003600003C080917E0790E09093F5048093F4049D
:1003700004E817E080917F0790E098012458374007
:100380002817390758F4F80181918F01E7D08C279D
:10039000E82FF0E0E050FE4FC081ECCF8C2F08C07A
:1003A00080918107DBD0E82FF0E0E050FE4F8081A4
:1003B000CF911F910F91D2C00F931F93CF93DF93D3
:1003C000EC018C01060F171FC017D10719F0BFD021
:1003D0008993FACFDF91CF911F910F910895B7D0F4
:1003E00080937B07803231F5B2D080937C07AFD009
:1003F00080937D07ACD080937E07A9D080937F0740
:1004000080917E078F3F19F482E091E001C090E077
:100410009093F5048093F4046091F4047091F504D2
:1004200080E093E0C9DF93D08093800781E08093E0
:1004300038060895109238060895E0917B07F0E0A1
:10044000E050FE4FE08180917C07E827F0E0E0502B
:10045000FE4FE08180917D07E827F0E090917E07D4
:10046000E050FE4FE081E927F0E0E050FE4FE081F0
:1004700080917F07E827F0E0E050FE4FE0819F3F4A
:1004800019F482E091E002C0892F90E09093F50486
:100490008093F4042091F4043091F504A0E0B3E0DB
:1004A000CD01805093408217930738F48D91E8274F
:1004B000F0E0E050FE4FE081F3CF80918007E82725
:1004C000F0E0E050FE4F808108950F931F93019656
:1004D000582F442760E070E000E010E0980180E0D1
:1004E000041715072607370768F4F8019491E92FD8
:1004F000E827F0E0E050FE4F80810F5F1F4F2F4F45
:100500003F4FEECF1F910F91089569DF809138061C
:10051000882389F092DF811104C08CEA80938107DF
:10052000A0CE84E58093810719D0E82FF0E0E05059
:10053000FE4F808113C008958093D4001092D5009F
:1005400088E18093D10086E08093D2000895809165
:10055000D00087FFFCCF8091D60008958093D6000D
:100560009091D00095FFFCCF089596DE9EE088E143
:100570000FB6F894A895809360000FBE909360002A
:0E05800087E6DADFA895C1DFFDCFF894FFCF44
:10058E0000070E091C1B1215383F363124232A2D65
:10059E0070777E796C6B6265484F464154535A5D55
:1005AE00E0E7EEE9FCFBF2F5D8DFD6D1C4C3CACD45
:1005BE0090979E998C8B8285A8AFA6A1B4B3BABD35
:1005CE00C7C0C9CEDBDCD5D2FFF8F1F6E3E4EDEA25
:1005DE00B7B0B9BEABACA5A28F88818693949D9A15
:1005EE002720292E3B3C35321F18111603040D0A05
:1005FE005750595E4B4C45426F68616673747D7AF5
:10060E00898E878095929B9CB1B6BFB8ADAAA3A4E4
:10061E00F9FEF7F0E5E2EBECC1C6CFC8DDDAD3D4D4
:10062E00696E676075727B7C51565F584D4A4344C4
:10063E00191E171005020B0C21262F283D3A3334B4
:10064E004E49404752555C5B7671787F6A6D6463A4
:10065E003E39303722252C2B0601080F1A1D141394
:10066E00AEA9A0A7B2B5BCBB9691989F8A8D848384
:10067E00DED9D0D7C2C5CCCBE6E1E8EFFAFDF4F374
:00000001FF
